{
  "_format": "hh-sol-artifact-1",
  "contractName": "MyNFT",
  "sourceName": "contracts/MyNFT.sol",
  "abi": [
    {
      "inputs": [],
      "stateMutability": "nonpayable",
      "type": "constructor"
    },
    {
      "anonymous": false,
      "inputs": [
        {
          "indexed": true,
          "internalType": "address",
          "name": "owner",
          "type": "address"
        },
        {
          "indexed": true,
          "internalType": "address",
          "name": "approved",
          "type": "address"
        },
        {
          "indexed": true,
          "internalType": "uint256",
          "name": "tokenId",
          "type": "uint256"
        }
      ],
      "name": "Approval",
      "type": "event"
    },
    {
      "anonymous": false,
      "inputs": [
        {
          "indexed": true,
          "internalType": "address",
          "name": "owner",
          "type": "address"
        },
        {
          "indexed": true,
          "internalType": "address",
          "name": "operator",
          "type": "address"
        },
        {
          "indexed": false,
          "internalType": "bool",
          "name": "approved",
          "type": "bool"
        }
      ],
      "name": "ApprovalForAll",
      "type": "event"
    },
    {
      "anonymous": false,
      "inputs": [
        {
          "indexed": false,
          "internalType": "address",
          "name": "sender",
          "type": "address"
        },
        {
          "indexed": false,
          "internalType": "uint256",
          "name": "tokenId",
          "type": "uint256"
        }
      ],
      "name": "NewNFTMinted",
      "type": "event"
    },
    {
      "anonymous": false,
      "inputs": [
        {
          "indexed": true,
          "internalType": "address",
          "name": "from",
          "type": "address"
        },
        {
          "indexed": true,
          "internalType": "address",
          "name": "to",
          "type": "address"
        },
        {
          "indexed": true,
          "internalType": "uint256",
          "name": "tokenId",
          "type": "uint256"
        }
      ],
      "name": "Transfer",
      "type": "event"
    },
    {
      "inputs": [
        {
          "internalType": "address",
          "name": "to",
          "type": "address"
        },
        {
          "internalType": "uint256",
          "name": "tokenId",
          "type": "uint256"
        }
      ],
      "name": "approve",
      "outputs": [],
      "stateMutability": "nonpayable",
      "type": "function"
    },
    {
      "inputs": [
        {
          "internalType": "address",
          "name": "owner",
          "type": "address"
        }
      ],
      "name": "balanceOf",
      "outputs": [
        {
          "internalType": "uint256",
          "name": "",
          "type": "uint256"
        }
      ],
      "stateMutability": "view",
      "type": "function"
    },
    {
      "inputs": [
        {
          "internalType": "uint256",
          "name": "tokenId",
          "type": "uint256"
        }
      ],
      "name": "getApproved",
      "outputs": [
        {
          "internalType": "address",
          "name": "",
          "type": "address"
        }
      ],
      "stateMutability": "view",
      "type": "function"
    },
    {
      "inputs": [
        {
          "internalType": "address",
          "name": "owner",
          "type": "address"
        },
        {
          "internalType": "address",
          "name": "operator",
          "type": "address"
        }
      ],
      "name": "isApprovedForAll",
      "outputs": [
        {
          "internalType": "bool",
          "name": "",
          "type": "bool"
        }
      ],
      "stateMutability": "view",
      "type": "function"
    },
    {
      "inputs": [],
      "name": "makeAnEpicNFT",
      "outputs": [],
      "stateMutability": "nonpayable",
      "type": "function"
    },
    {
      "inputs": [],
      "name": "mintedNFTs",
      "outputs": [
        {
          "internalType": "uint256",
          "name": "items",
          "type": "uint256"
        }
      ],
      "stateMutability": "view",
      "type": "function"
    },
    {
      "inputs": [],
      "name": "name",
      "outputs": [
        {
          "internalType": "string",
          "name": "",
          "type": "string"
        }
      ],
      "stateMutability": "view",
      "type": "function"
    },
    {
      "inputs": [
        {
          "internalType": "uint256",
          "name": "tokenId",
          "type": "uint256"
        }
      ],
      "name": "ownerOf",
      "outputs": [
        {
          "internalType": "address",
          "name": "",
          "type": "address"
        }
      ],
      "stateMutability": "view",
      "type": "function"
    },
    {
      "inputs": [
        {
          "internalType": "uint256",
          "name": "tokenId",
          "type": "uint256"
        }
      ],
      "name": "pickRandomColor",
      "outputs": [
        {
          "internalType": "string",
          "name": "",
          "type": "string"
        }
      ],
      "stateMutability": "view",
      "type": "function"
    },
    {
      "inputs": [
        {
          "internalType": "uint256",
          "name": "tokenId",
          "type": "uint256"
        }
      ],
      "name": "pickRandomFirstWord",
      "outputs": [
        {
          "internalType": "string",
          "name": "",
          "type": "string"
        }
      ],
      "stateMutability": "view",
      "type": "function"
    },
    {
      "inputs": [
        {
          "internalType": "uint256",
          "name": "tokenId",
          "type": "uint256"
        }
      ],
      "name": "pickRandomSecondWord",
      "outputs": [
        {
          "internalType": "string",
          "name": "",
          "type": "string"
        }
      ],
      "stateMutability": "view",
      "type": "function"
    },
    {
      "inputs": [
        {
          "internalType": "uint256",
          "name": "tokenId",
          "type": "uint256"
        }
      ],
      "name": "pickRandomThirdWord",
      "outputs": [
        {
          "internalType": "string",
          "name": "",
          "type": "string"
        }
      ],
      "stateMutability": "view",
      "type": "function"
    },
    {
      "inputs": [
        {
          "internalType": "address",
          "name": "from",
          "type": "address"
        },
        {
          "internalType": "address",
          "name": "to",
          "type": "address"
        },
        {
          "internalType": "uint256",
          "name": "tokenId",
          "type": "uint256"
        }
      ],
      "name": "safeTransferFrom",
      "outputs": [],
      "stateMutability": "nonpayable",
      "type": "function"
    },
    {
      "inputs": [
        {
          "internalType": "address",
          "name": "from",
          "type": "address"
        },
        {
          "internalType": "address",
          "name": "to",
          "type": "address"
        },
        {
          "internalType": "uint256",
          "name": "tokenId",
          "type": "uint256"
        },
        {
          "internalType": "bytes",
          "name": "_data",
          "type": "bytes"
        }
      ],
      "name": "safeTransferFrom",
      "outputs": [],
      "stateMutability": "nonpayable",
      "type": "function"
    },
    {
      "inputs": [
        {
          "internalType": "address",
          "name": "operator",
          "type": "address"
        },
        {
          "internalType": "bool",
          "name": "approved",
          "type": "bool"
        }
      ],
      "name": "setApprovalForAll",
      "outputs": [],
      "stateMutability": "nonpayable",
      "type": "function"
    },
    {
      "inputs": [
        {
          "internalType": "bytes4",
          "name": "interfaceId",
          "type": "bytes4"
        }
      ],
      "name": "supportsInterface",
      "outputs": [
        {
          "internalType": "bool",
          "name": "",
          "type": "bool"
        }
      ],
      "stateMutability": "view",
      "type": "function"
    },
    {
      "inputs": [],
      "name": "symbol",
      "outputs": [
        {
          "internalType": "string",
          "name": "",
          "type": "string"
        }
      ],
      "stateMutability": "view",
      "type": "function"
    },
    {
      "inputs": [
        {
          "internalType": "uint256",
          "name": "tokenId",
          "type": "uint256"
        }
      ],
      "name": "tokenURI",
      "outputs": [
        {
          "internalType": "string",
          "name": "",
          "type": "string"
        }
      ],
      "stateMutability": "view",
      "type": "function"
    },
    {
      "inputs": [
        {
          "internalType": "address",
          "name": "from",
          "type": "address"
        },
        {
          "internalType": "address",
          "name": "to",
          "type": "address"
        },
        {
          "internalType": "uint256",
          "name": "tokenId",
          "type": "uint256"
        }
      ],
      "name": "transferFrom",
      "outputs": [],
      "stateMutability": "nonpayable",
      "type": "function"
    }
  ],
  "bytecode": "0x608060405260405180610100016040528060d381526020016200497360d39139600890805190602001906200003692919062000af3565b5060405180608001604052806056815260200162004a4660569139600990805190602001906200006892919062000af3565b506040518061014001604052806040518060400160405280600481526020017f4c6f73740000000000000000000000000000000000000000000000000000000081525081526020016040518060400160405280600481526020017f466173740000000000000000000000000000000000000000000000000000000081525081526020016040518060400160405280600681526020017f537472656574000000000000000000000000000000000000000000000000000081525081526020016040518060400160405280600581526020017f43616e647900000000000000000000000000000000000000000000000000000081525081526020016040518060400160405280600581526020017f437275646500000000000000000000000000000000000000000000000000000081525081526020016040518060400160405280600481526020017f436f6c640000000000000000000000000000000000000000000000000000000081525081526020016040518060400160405280600381526020017f486f74000000000000000000000000000000000000000000000000000000000081525081526020016040518060400160405280600581526020017f5072696d6500000000000000000000000000000000000000000000000000000081525081526020016040518060400160405280600581526020017f4c756e617200000000000000000000000000000000000000000000000000000081525081526020016040518060400160405280600581526020017f5368696e79000000000000000000000000000000000000000000000000000000815250815250600a90600a620002d392919062000b84565b506040518061014001604052806040518060400160405280600481526020017f486169720000000000000000000000000000000000000000000000000000000081525081526020016040518060400160405280600681526020017f4c7972696373000000000000000000000000000000000000000000000000000081525081526020016040518060400160405280600881526020017f41746c616e74697300000000000000000000000000000000000000000000000081525081526020016040518060400160405280600481526020017f4d6f6f640000000000000000000000000000000000000000000000000000000081525081526020016040518060400160405280600481526020017f536c6f770000000000000000000000000000000000000000000000000000000081525081526020016040518060400160405280600881526020017f536563757269747900000000000000000000000000000000000000000000000081525081526020016040518060400160405280600481526020017f467265650000000000000000000000000000000000000000000000000000000081525081526020016040518060400160405280600681526020017f536d6f6f7468000000000000000000000000000000000000000000000000000081525081526020016040518060400160405280600a81526020017f47656c6174696e6f75730000000000000000000000000000000000000000000081525081526020016040518060400160405280600581526020017f4a6f6c6c79000000000000000000000000000000000000000000000000000000815250815250600b90600a6200053e92919062000b84565b506040518061014001604052806040518060400160405280600581526020017f517565656e00000000000000000000000000000000000000000000000000000081525081526020016040518060400160405280600781526020017f4665656c696e670000000000000000000000000000000000000000000000000081525081526020016040518060400160405280600881526020017f456c657068616e7400000000000000000000000000000000000000000000000081525081526020016040518060400160405280600681526020017f526170706572000000000000000000000000000000000000000000000000000081525081526020016040518060400160405280600481526020017f466972650000000000000000000000000000000000000000000000000000000081525081526020016040518060400160405280600581526020017f53746f727900000000000000000000000000000000000000000000000000000081525081526020016040518060400160405280600581526020017f4c6f76657200000000000000000000000000000000000000000000000000000081525081526020016040518060400160405280600581526020017f576174657200000000000000000000000000000000000000000000000000000081525081526020016040518060400160405280600581526020017f4d6167696300000000000000000000000000000000000000000000000000000081525081526020016040518060400160405280600681526020017f4c65676163790000000000000000000000000000000000000000000000000000815250815250600c90600a620007a992919062000b84565b506040518060c001604052806040518060400160405280600381526020017f726564000000000000000000000000000000000000000000000000000000000081525081526020016040518060400160405280600781526020017f233038433241380000000000000000000000000000000000000000000000000081525081526020016040518060400160405280600581526020017f626c61636b00000000000000000000000000000000000000000000000000000081525081526020016040518060400160405280600681526020017f79656c6c6f77000000000000000000000000000000000000000000000000000081525081526020016040518060400160405280600481526020017f626c75650000000000000000000000000000000000000000000000000000000081525081526020016040518060400160405280600581526020017f677265656e000000000000000000000000000000000000000000000000000000815250815250600d9060066200092792919062000beb565b503480156200093557600080fd5b506040518060400160405280600981526020017f5371756172654e465400000000000000000000000000000000000000000000008152506040518060400160405280600681526020017f53515541524500000000000000000000000000000000000000000000000000008152508160009080519060200190620009ba92919062000af3565b508060019080519060200190620009d392919062000af3565b50505062000a216040518060400160405280601881526020017f54686973206973206d79204e465420636f6e747261637421000000000000000081525062000a2760201b620012c21760201c565b62000e0c565b62000ac78160405160240162000a3e919062000d20565b6040516020818303038152906040527f41304fac000000000000000000000000000000000000000000000000000000007bffffffffffffffffffffffffffffffffffffffffffffffffffffffff19166020820180517bffffffffffffffffffffffffffffffffffffffffffffffffffffffff838183161783525050505062000aca60201b60201c565b50565b60008151905060006a636f6e736f6c652e6c6f679050602083016000808483855afa5050505050565b82805462000b019062000d96565b90600052602060002090601f01602090048101928262000b25576000855562000b71565b82601f1062000b4057805160ff191683800117855562000b71565b8280016001018555821562000b71579182015b8281111562000b7057825182559160200191906001019062000b53565b5b50905062000b80919062000c52565b5090565b82805482825590600052602060002090810192821562000bd8579160200282015b8281111562000bd757825182908051906020019062000bc692919062000af3565b509160200191906001019062000ba5565b5b50905062000be7919062000c71565b5090565b82805482825590600052602060002090810192821562000c3f579160200282015b8281111562000c3e57825182908051906020019062000c2d92919062000af3565b509160200191906001019062000c0c565b5b50905062000c4e919062000c71565b5090565b5b8082111562000c6d57600081600090555060010162000c53565b5090565b5b8082111562000c95576000818162000c8b919062000c99565b5060010162000c72565b5090565b50805462000ca79062000d96565b6000825580601f1062000cbb575062000cdc565b601f01602090049060005260206000209081019062000cdb919062000c52565b5b50565b600062000cec8262000d44565b62000cf8818562000d4f565b935062000d0a81856020860162000d60565b62000d158162000dfb565b840191505092915050565b6000602082019050818103600083015262000d3c818462000cdf565b905092915050565b600081519050919050565b600082825260208201905092915050565b60005b8381101562000d8057808201518184015260208101905062000d63565b8381111562000d90576000848401525b50505050565b6000600282049050600182168062000daf57607f821691505b6020821081141562000dc65762000dc562000dcc565b5b50919050565b7f4e487b7100000000000000000000000000000000000000000000000000000000600052602260045260246000fd5b6000601f19601f8301169050919050565b613b578062000e1c6000396000f3fe608060405234801561001057600080fd5b50600436106101215760003560e01c80636352211e116100ad578063b88d4fde11610071578063b88d4fde14610340578063c575757a1461035c578063c87b56dd1461038c578063de9d132f146103bc578063e985e9c5146103c657610121565b80636352211e1461027657806370a08231146102a657806395d89b41146102d6578063a22cb465146102f4578063b187301f1461031057610121565b8063095ea7b3116100f4578063095ea7b3146101c257806323b872dd146101de5780632de38d68146101fa57806342842e0e1461022a578063514dc8c61461024657610121565b8063016776611461012657806301ffc9a71461014457806306fdde0314610174578063081812fc14610192575b600080fd5b61012e6103f6565b60405161013b9190613648565b60405180910390f35b61015e600480360381019061015991906126cf565b610416565b60405161016b91906133ad565b60405180910390f35b61017c6104f8565b60405161018991906133c8565b60405180910390f35b6101ac60048036038101906101a79190612721565b61058a565b6040516101b9919061331d565b60405180910390f35b6101dc60048036038101906101d79190612693565b61060f565b005b6101f860048036038101906101f3919061258d565b610727565b005b610214600480360381019061020f9190612721565b610787565b60405161022191906133c8565b60405180910390f35b610244600480360381019061023f919061258d565b6108a5565b005b610260600480360381019061025b9190612721565b6108c5565b60405161026d91906133c8565b60405180910390f35b610290600480360381019061028b9190612721565b6109e3565b60405161029d919061331d565b60405180910390f35b6102c060048036038101906102bb9190612528565b610a95565b6040516102cd9190613648565b60405180910390f35b6102de610b4d565b6040516102eb91906133c8565b60405180910390f35b61030e60048036038101906103099190612657565b610bdf565b005b61032a60048036038101906103259190612721565b610bf5565b60405161033791906133c8565b60405180910390f35b61035a600480360381019061035591906125dc565b610d13565b005b61037660048036038101906103719190612721565b610d75565b60405161038391906133c8565b60405180910390f35b6103a660048036038101906103a19190612721565b610e93565b6040516103b391906133c8565b60405180910390f35b6103c4610fe5565b005b6103e060048036038101906103db9190612551565b61122e565b6040516103ed91906133ad565b60405180910390f35b6000610402600761135b565b9050600181610411919061371c565b905090565b60007f80ac58cd000000000000000000000000000000000000000000000000000000007bffffffffffffffffffffffffffffffffffffffffffffffffffffffff1916827bffffffffffffffffffffffffffffffffffffffffffffffffffffffff191614806104e157507f5b5e139f000000000000000000000000000000000000000000000000000000007bffffffffffffffffffffffffffffffffffffffffffffffffffffffff1916827bffffffffffffffffffffffffffffffffffffffffffffffffffffffff1916145b806104f157506104f082611369565b5b9050919050565b606060008054610507906138e7565b80601f0160208091040260200160405190810160405280929190818152602001828054610533906138e7565b80156105805780601f1061055557610100808354040283529160200191610580565b820191906000526020600020905b81548152906001019060200180831161056357829003601f168201915b5050505050905090565b6000610595826113d3565b6105d4576040517f08c379a00000000000000000000000000000000000000000000000000000000081526004016105cb906135a8565b60405180910390fd5b6004600083815260200190815260200160002060009054906101000a900473ffffffffffffffffffffffffffffffffffffffff169050919050565b600061061a826109e3565b90508073ffffffffffffffffffffffffffffffffffffffff168373ffffffffffffffffffffffffffffffffffffffff16141561068b576040517f08c379a000000000000000000000000000000000000000000000000000000000815260040161068290613608565b60405180910390fd5b8073ffffffffffffffffffffffffffffffffffffffff166106aa61143f565b73ffffffffffffffffffffffffffffffffffffffff1614806106d957506106d8816106d361143f565b61122e565b5b610718576040517f08c379a000000000000000000000000000000000000000000000000000000000815260040161070f906134e8565b60405180910390fd5b6107228383611447565b505050565b61073861073261143f565b82611500565b610777576040517f08c379a000000000000000000000000000000000000000000000000000000000815260040161076e90613628565b60405180910390fd5b6107828383836115de565b505050565b606060006107bb6107978461183a565b6040516020016107a791906132b7565b6040516020818303038152906040526119e7565b9050600a80549050816107ce9190613962565b9050600a818154811061080a577f4e487b7100000000000000000000000000000000000000000000000000000000600052603260045260246000fd5b90600052602060002001805461081f906138e7565b80601f016020809104026020016040519081016040528092919081815260200182805461084b906138e7565b80156108985780601f1061086d57610100808354040283529160200191610898565b820191906000526020600020905b81548152906001019060200180831161087b57829003601f168201915b5050505050915050919050565b6108c083838360405180602001604052806000815250610d13565b505050565b606060006108f96108d58461183a565b6040516020016108e591906132fb565b6040516020818303038152906040526119e7565b9050600d805490508161090c9190613962565b9050600d8181548110610948577f4e487b7100000000000000000000000000000000000000000000000000000000600052603260045260246000fd5b90600052602060002001805461095d906138e7565b80601f0160208091040260200160405190810160405280929190818152602001828054610989906138e7565b80156109d65780601f106109ab576101008083540402835291602001916109d6565b820191906000526020600020905b8154815290600101906020018083116109b957829003601f168201915b5050505050915050919050565b6000806002600084815260200190815260200160002060009054906101000a900473ffffffffffffffffffffffffffffffffffffffff169050600073ffffffffffffffffffffffffffffffffffffffff168173ffffffffffffffffffffffffffffffffffffffff161415610a8c576040517f08c379a0000000000000000000000000000000000000000000000000000000008152600401610a8390613528565b60405180910390fd5b80915050919050565b60008073ffffffffffffffffffffffffffffffffffffffff168273ffffffffffffffffffffffffffffffffffffffff161415610b06576040517f08c379a0000000000000000000000000000000000000000000000000000000008152600401610afd90613508565b60405180910390fd5b600360008373ffffffffffffffffffffffffffffffffffffffff1673ffffffffffffffffffffffffffffffffffffffff168152602001908152602001600020549050919050565b606060018054610b5c906138e7565b80601f0160208091040260200160405190810160405280929190818152602001828054610b88906138e7565b8015610bd55780601f10610baa57610100808354040283529160200191610bd5565b820191906000526020600020905b815481529060010190602001808311610bb857829003601f168201915b5050505050905090565b610bf1610bea61143f565b8383611a1a565b5050565b60606000610c29610c058461183a565b604051602001610c159190613250565b6040516020818303038152906040526119e7565b9050600b8054905081610c3c9190613962565b9050600b8181548110610c78577f4e487b7100000000000000000000000000000000000000000000000000000000600052603260045260246000fd5b906000526020600020018054610c8d906138e7565b80601f0160208091040260200160405190810160405280929190818152602001828054610cb9906138e7565b8015610d065780601f10610cdb57610100808354040283529160200191610d06565b820191906000526020600020905b815481529060010190602001808311610ce957829003601f168201915b5050505050915050919050565b610d24610d1e61143f565b83611500565b610d63576040517f08c379a0000000000000000000000000000000000000000000000000000000008152600401610d5a90613628565b60405180910390fd5b610d6f84848484611b87565b50505050565b60606000610da9610d858461183a565b604051602001610d95919061322e565b6040516020818303038152906040526119e7565b9050600c8054905081610dbc9190613962565b9050600c8181548110610df8577f4e487b7100000000000000000000000000000000000000000000000000000000600052603260045260246000fd5b906000526020600020018054610e0d906138e7565b80601f0160208091040260200160405190810160405280929190818152602001828054610e39906138e7565b8015610e865780601f10610e5b57610100808354040283529160200191610e86565b820191906000526020600020905b815481529060010190602001808311610e6957829003601f168201915b5050505050915050919050565b6060610e9e826113d3565b610edd576040517f08c379a0000000000000000000000000000000000000000000000000000000008152600401610ed490613588565b60405180910390fd5b6000600660008481526020019081526020016000208054610efd906138e7565b80601f0160208091040260200160405190810160405280929190818152602001828054610f29906138e7565b8015610f765780601f10610f4b57610100808354040283529160200191610f76565b820191906000526020600020905b815481529060010190602001808311610f5957829003601f168201915b505050505090506000610f87611be3565b9050600081511415610f9d578192505050610fe0565b600082511115610fd2578082604051602001610fba929190613190565b60405160208183030381529060405292505050610fe0565b610fdb84611bfa565b925050505b919050565b6000610ff1600761135b565b90506001151561100082611ca1565b151514611042576040517f08c379a000000000000000000000000000000000000000000000000000000000815260040161103990613428565b60405180910390fd5b600061104d82610787565b9050600061105a83610bf5565b9050600061106784610d75565b90506000838383604051602001611080939291906131b4565b6040516020818303038152906040529050600061109c866108c5565b905060006008826009856040516020016110b994939291906131e5565b604051602081830303815290604052905060006110fe846110d984611cae565b6040516020016110ea929190613272565b604051602081830303815290604052611cae565b905060008160405160200161111391906132d9565b60405160208183030381529060405290506111626040518060400160405280601581526020017f0a2d2d2d2d2d2d2d2d2d2d2d2d2d2d2d2d2d2d2d2d00000000000000000000008152506112c2565b61116b816112c2565b6111a96040518060400160405280601581526020017f2d2d2d2d2d2d2d2d2d2d2d2d2d2d2d2d2d2d2d2d0a00000000000000000000008152506112c2565b6111b3338a611e6c565b6111bd8982611e8a565b6111c76007611efe565b6111ea604051806060016040528060258152602001613abd602591398a33611f14565b7f1c05098ed1ff38e6238d2b1b04b2c7977d4c94ce651bda6473f9dba8dbf01da0338a60405161121b929190613384565b60405180910390a1505050505050505050565b6000600560008473ffffffffffffffffffffffffffffffffffffffff1673ffffffffffffffffffffffffffffffffffffffff16815260200190815260200160002060008373ffffffffffffffffffffffffffffffffffffffff1673ffffffffffffffffffffffffffffffffffffffff16815260200190815260200160002060009054906101000a900460ff16905092915050565b611358816040516024016112d691906133c8565b6040516020818303038152906040527f41304fac000000000000000000000000000000000000000000000000000000007bffffffffffffffffffffffffffffffffffffffffffffffffffffffff19166020820180517bffffffffffffffffffffffffffffffffffffffffffffffffffffffff8381831617835250505050611fb3565b50565b600081600001549050919050565b60007f01ffc9a7000000000000000000000000000000000000000000000000000000007bffffffffffffffffffffffffffffffffffffffffffffffffffffffff1916827bffffffffffffffffffffffffffffffffffffffffffffffffffffffff1916149050919050565b60008073ffffffffffffffffffffffffffffffffffffffff166002600084815260200190815260200160002060009054906101000a900473ffffffffffffffffffffffffffffffffffffffff1673ffffffffffffffffffffffffffffffffffffffff1614159050919050565b600033905090565b816004600083815260200190815260200160002060006101000a81548173ffffffffffffffffffffffffffffffffffffffff021916908373ffffffffffffffffffffffffffffffffffffffff160217905550808273ffffffffffffffffffffffffffffffffffffffff166114ba836109e3565b73ffffffffffffffffffffffffffffffffffffffff167f8c5be1e5ebec7d5bd14f71427d1e84f3dd0314c0f7b2291e5b200ac8c7c3b92560405160405180910390a45050565b600061150b826113d3565b61154a576040517f08c379a0000000000000000000000000000000000000000000000000000000008152600401611541906134c8565b60405180910390fd5b6000611555836109e3565b90508073ffffffffffffffffffffffffffffffffffffffff168473ffffffffffffffffffffffffffffffffffffffff1614806115c457508373ffffffffffffffffffffffffffffffffffffffff166115ac8461058a565b73ffffffffffffffffffffffffffffffffffffffff16145b806115d557506115d4818561122e565b5b91505092915050565b8273ffffffffffffffffffffffffffffffffffffffff166115fe826109e3565b73ffffffffffffffffffffffffffffffffffffffff1614611654576040517f08c379a000000000000000000000000000000000000000000000000000000000815260040161164b906135c8565b60405180910390fd5b600073ffffffffffffffffffffffffffffffffffffffff168273ffffffffffffffffffffffffffffffffffffffff1614156116c4576040517f08c379a00000000000000000000000000000000000000000000000000000000081526004016116bb90613488565b60405180910390fd5b6116cf838383611fdc565b6116da600082611447565b6001600360008573ffffffffffffffffffffffffffffffffffffffff1673ffffffffffffffffffffffffffffffffffffffff168152602001908152602001600020600082825461172a91906137fd565b925050819055506001600360008473ffffffffffffffffffffffffffffffffffffffff1673ffffffffffffffffffffffffffffffffffffffff1681526020019081526020016000206000828254611781919061371c565b92505081905550816002600083815260200190815260200160002060006101000a81548173ffffffffffffffffffffffffffffffffffffffff021916908373ffffffffffffffffffffffffffffffffffffffff160217905550808273ffffffffffffffffffffffffffffffffffffffff168473ffffffffffffffffffffffffffffffffffffffff167fddf252ad1be2c89b69c2b068fc378daa952ba7f163c4a11628f55a4df523b3ef60405160405180910390a4505050565b60606000821415611882576040518060400160405280600181526020017f300000000000000000000000000000000000000000000000000000000000000081525090506119e2565b600082905060005b600082146118b457808061189d90613919565b915050600a826118ad9190613772565b915061188a565b60008167ffffffffffffffff8111156118f6577f4e487b7100000000000000000000000000000000000000000000000000000000600052604160045260246000fd5b6040519080825280601f01601f1916602001820160405280156119285781602001600182028036833780820191505090505b5090505b600085146119db5760018261194191906137fd565b9150600a856119509190613962565b603061195c919061371c565b60f81b818381518110611998577f4e487b7100000000000000000000000000000000000000000000000000000000600052603260045260246000fd5b60200101907effffffffffffffffffffffffffffffffffffffffffffffffffffffffffffff1916908160001a905350600a856119d49190613772565b945061192c565b8093505050505b919050565b6000816040516020016119fa9190613179565b6040516020818303038152906040528051906020012060001c9050919050565b8173ffffffffffffffffffffffffffffffffffffffff168373ffffffffffffffffffffffffffffffffffffffff161415611a89576040517f08c379a0000000000000000000000000000000000000000000000000000000008152600401611a80906134a8565b60405180910390fd5b80600560008573ffffffffffffffffffffffffffffffffffffffff1673ffffffffffffffffffffffffffffffffffffffff16815260200190815260200160002060008473ffffffffffffffffffffffffffffffffffffffff1673ffffffffffffffffffffffffffffffffffffffff16815260200190815260200160002060006101000a81548160ff0219169083151502179055508173ffffffffffffffffffffffffffffffffffffffff168373ffffffffffffffffffffffffffffffffffffffff167f17307eab39ab6107e8899845ad3d59bd9653f200f220920489ca2b5937696c3183604051611b7a91906133ad565b60405180910390a3505050565b611b928484846115de565b611b9e84848484611fe1565b611bdd576040517f08c379a0000000000000000000000000000000000000000000000000000000008152600401611bd490613448565b60405180910390fd5b50505050565b606060405180602001604052806000815250905090565b6060611c05826113d3565b611c44576040517f08c379a0000000000000000000000000000000000000000000000000000000008152600401611c3b906135e8565b60405180910390fd5b6000611c4e611be3565b90506000815111611c6e5760405180602001604052806000815250611c99565b80611c788461183a565b604051602001611c89929190613190565b6040516020818303038152906040525b915050919050565b6000603282109050919050565b60606000825190506000811415611cd75760405180602001604052806000815250915050611e67565b60006003600283611ce8919061371c565b611cf29190613772565b6004611cfe91906137a3565b90506000602082611d0f919061371c565b67ffffffffffffffff811115611d4e577f4e487b7100000000000000000000000000000000000000000000000000000000600052604160045260246000fd5b6040519080825280601f01601f191660200182016040528015611d805781602001600182028036833780820191505090505b5090506000604051806060016040528060408152602001613ae2604091399050600181016020830160005b86811015611e245760038101905062ffffff818a015116603f8160121c168401518060081b905060ff603f83600c1c1686015116810190508060081b905060ff603f8360061c1686015116810190508060081b905060ff603f831686015116810190508060e01b90508084526004840193505050611dab565b506003860660018114611e3e5760028114611e4e57611e59565b613d3d60f01b6002830352611e59565b603d60f81b60018303525b508484525050819450505050505b919050565b611e86828260405180602001604052806000815250612178565b5050565b611e93826113d3565b611ed2576040517f08c379a0000000000000000000000000000000000000000000000000000000008152600401611ec990613548565b60405180910390fd5b80600660008481526020019081526020016000209080519060200190611ef99291906123b4565b505050565b6001816000016000828254019250508190555050565b611fae838383604051602401611f2c939291906133ea565b6040516020818303038152906040527fe3849f79000000000000000000000000000000000000000000000000000000007bffffffffffffffffffffffffffffffffffffffffffffffffffffffff19166020820180517bffffffffffffffffffffffffffffffffffffffffffffffffffffffff8381831617835250505050611fb3565b505050565b60008151905060006a636f6e736f6c652e6c6f679050602083016000808483855afa5050505050565b505050565b60006120028473ffffffffffffffffffffffffffffffffffffffff166121d3565b1561216b578373ffffffffffffffffffffffffffffffffffffffff1663150b7a0261202b61143f565b8786866040518563ffffffff1660e01b815260040161204d9493929190613338565b602060405180830381600087803b15801561206757600080fd5b505af192505050801561209857506040513d601f19601f8201168201806040525081019061209591906126f8565b60015b61211b573d80600081146120c8576040519150601f19603f3d011682016040523d82523d6000602084013e6120cd565b606091505b50600081511415612113576040517f08c379a000000000000000000000000000000000000000000000000000000000815260040161210a90613448565b60405180910390fd5b805181602001fd5b63150b7a0260e01b7bffffffffffffffffffffffffffffffffffffffffffffffffffffffff1916817bffffffffffffffffffffffffffffffffffffffffffffffffffffffff191614915050612170565b600190505b949350505050565b61218283836121e6565b61218f6000848484611fe1565b6121ce576040517f08c379a00000000000000000000000000000000000000000000000000000000081526004016121c590613448565b60405180910390fd5b505050565b600080823b905060008111915050919050565b600073ffffffffffffffffffffffffffffffffffffffff168273ffffffffffffffffffffffffffffffffffffffff161415612256576040517f08c379a000000000000000000000000000000000000000000000000000000000815260040161224d90613568565b60405180910390fd5b61225f816113d3565b1561229f576040517f08c379a000000000000000000000000000000000000000000000000000000000815260040161229690613468565b60405180910390fd5b6122ab60008383611fdc565b6001600360008473ffffffffffffffffffffffffffffffffffffffff1673ffffffffffffffffffffffffffffffffffffffff16815260200190815260200160002060008282546122fb919061371c565b92505081905550816002600083815260200190815260200160002060006101000a81548173ffffffffffffffffffffffffffffffffffffffff021916908373ffffffffffffffffffffffffffffffffffffffff160217905550808273ffffffffffffffffffffffffffffffffffffffff16600073ffffffffffffffffffffffffffffffffffffffff167fddf252ad1be2c89b69c2b068fc378daa952ba7f163c4a11628f55a4df523b3ef60405160405180910390a45050565b8280546123c0906138e7565b90600052602060002090601f0160209004810192826123e25760008555612429565b82601f106123fb57805160ff1916838001178555612429565b82800160010185558215612429579182015b8281111561242857825182559160200191906001019061240d565b5b509050612436919061243a565b5090565b5b8082111561245357600081600090555060010161243b565b5090565b600061246a61246584613694565b613663565b90508281526020810184848401111561248257600080fd5b61248d8482856138a5565b509392505050565b6000813590506124a481613a60565b92915050565b6000813590506124b981613a77565b92915050565b6000813590506124ce81613a8e565b92915050565b6000815190506124e381613a8e565b92915050565b600082601f8301126124fa57600080fd5b813561250a848260208601612457565b91505092915050565b60008135905061252281613aa5565b92915050565b60006020828403121561253a57600080fd5b600061254884828501612495565b91505092915050565b6000806040838503121561256457600080fd5b600061257285828601612495565b925050602061258385828601612495565b9150509250929050565b6000806000606084860312156125a257600080fd5b60006125b086828701612495565b93505060206125c186828701612495565b92505060406125d286828701612513565b9150509250925092565b600080600080608085870312156125f257600080fd5b600061260087828801612495565b945050602061261187828801612495565b935050604061262287828801612513565b925050606085013567ffffffffffffffff81111561263f57600080fd5b61264b878288016124e9565b91505092959194509250565b6000806040838503121561266a57600080fd5b600061267885828601612495565b9250506020612689858286016124aa565b9150509250929050565b600080604083850312156126a657600080fd5b60006126b485828601612495565b92505060206126c585828601612513565b9150509250929050565b6000602082840312156126e157600080fd5b60006126ef848285016124bf565b91505092915050565b60006020828403121561270a57600080fd5b6000612718848285016124d4565b91505092915050565b60006020828403121561273357600080fd5b600061274184828501612513565b91505092915050565b61275381613831565b82525050565b61276281613843565b82525050565b6000612773826136d9565b61277d81856136ef565b935061278d8185602086016138b4565b61279681613a4f565b840191505092915050565b60006127ac826136e4565b6127b68185613700565b93506127c68185602086016138b4565b6127cf81613a4f565b840191505092915050565b60006127e5826136e4565b6127ef8185613711565b93506127ff8185602086016138b4565b80840191505092915050565b60008154612818816138e7565b6128228186613711565b9450600182166000811461283d576001811461284e57612881565b60ff19831686528186019350612881565b612857856136c4565b60005b838110156128795781548189015260018201915060208101905061285a565b838801955050505b50505092915050565b6000612897602083613700565b91507f4d6178206c696d6974206f66206d696e746564204e46547320726561636865646000830152602082019050919050565b60006128d7603283613700565b91507f4552433732313a207472616e7366657220746f206e6f6e20455243373231526560008301527f63656976657220696d706c656d656e74657200000000000000000000000000006020830152604082019050919050565b600061293d601c83613700565b91507f4552433732313a20746f6b656e20616c7265616479206d696e746564000000006000830152602082019050919050565b600061297d600a83613711565b91507f54484952445f574f5244000000000000000000000000000000000000000000006000830152600a82019050919050565b60006129bd602483613700565b91507f4552433732313a207472616e7366657220746f20746865207a65726f2061646460008301527f72657373000000000000000000000000000000000000000000000000000000006020830152604082019050919050565b6000612a23601983613700565b91507f4552433732313a20617070726f766520746f2063616c6c6572000000000000006000830152602082019050919050565b6000612a63606383613711565b91507f222c20226465736372697074696f6e223a20224120686967686c79206163636c60008301527f61696d656420636f6c6c656374696f6e206f6620737175617265732e222c202260208301527f696d616765223a2022646174613a696d6167652f7376672b786d6c3b6261736560408301527f36342c00000000000000000000000000000000000000000000000000000000006060830152606382019050919050565b6000612b15600b83613711565b91507f5345434f4e445f574f52440000000000000000000000000000000000000000006000830152600b82019050919050565b6000612b55602c83613700565b91507f4552433732313a206f70657261746f7220717565727920666f72206e6f6e657860008301527f697374656e7420746f6b656e00000000000000000000000000000000000000006020830152604082019050919050565b6000612bbb600d83613711565b91507f3c2f746578743e3c2f7376673e000000000000000000000000000000000000006000830152600d82019050919050565b6000612bfb603883613700565b91507f4552433732313a20617070726f76652063616c6c6572206973206e6f74206f7760008301527f6e6572206e6f7220617070726f76656420666f7220616c6c00000000000000006020830152604082019050919050565b6000612c61602a83613700565b91507f4552433732313a2062616c616e636520717565727920666f7220746865207a6560008301527f726f2061646472657373000000000000000000000000000000000000000000006020830152604082019050919050565b6000612cc7602983613700565b91507f4552433732313a206f776e657220717565727920666f72206e6f6e657869737460008301527f656e7420746f6b656e00000000000000000000000000000000000000000000006020830152604082019050919050565b6000612d2d602e83613700565b91507f45524337323155524953746f726167653a2055524920736574206f66206e6f6e60008301527f6578697374656e7420746f6b656e0000000000000000000000000000000000006020830152604082019050919050565b6000612d93600283613711565b91507f227d0000000000000000000000000000000000000000000000000000000000006000830152600282019050919050565b6000612dd3602083613700565b91507f4552433732313a206d696e7420746f20746865207a65726f20616464726573736000830152602082019050919050565b6000612e13603183613700565b91507f45524337323155524953746f726167653a2055524920717565727920666f722060008301527f6e6f6e6578697374656e7420746f6b656e0000000000000000000000000000006020830152604082019050919050565b6000612e79602c83613700565b91507f4552433732313a20617070726f76656420717565727920666f72206e6f6e657860008301527f697374656e7420746f6b656e00000000000000000000000000000000000000006020830152604082019050919050565b6000612edf602983613700565b91507f4552433732313a207472616e73666572206f6620746f6b656e2074686174206960008301527f73206e6f74206f776e00000000000000000000000000000000000000000000006020830152604082019050919050565b6000612f45602f83613700565b91507f4552433732314d657461646174613a2055524920717565727920666f72206e6f60008301527f6e6578697374656e7420746f6b656e00000000000000000000000000000000006020830152604082019050919050565b6000612fab600a83613711565b91507f7b226e616d65223a2022000000000000000000000000000000000000000000006000830152600a82019050919050565b6000612feb602183613700565b91507f4552433732313a20617070726f76616c20746f2063757272656e74206f776e6560008301527f72000000000000000000000000000000000000000000000000000000000000006020830152604082019050919050565b6000613051600a83613711565b91507f46495253545f574f5244000000000000000000000000000000000000000000006000830152600a82019050919050565b6000613091601d83613711565b91507f646174613a6170706c69636174696f6e2f6a736f6e3b6261736536342c0000006000830152601d82019050919050565b60006130d1603183613700565b91507f4552433732313a207472616e736665722063616c6c6572206973206e6f74206f60008301527f776e6572206e6f7220617070726f7665640000000000000000000000000000006020830152604082019050919050565b6000613137600583613711565b91507f434f4c4f520000000000000000000000000000000000000000000000000000006000830152600582019050919050565b6131738161389b565b82525050565b600061318582846127da565b915081905092915050565b600061319c82856127da565b91506131a882846127da565b91508190509392505050565b60006131c082866127da565b91506131cc82856127da565b91506131d882846127da565b9150819050949350505050565b60006131f1828761280b565b91506131fd82866127da565b9150613209828561280b565b915061321582846127da565b915061322082612bae565b915081905095945050505050565b600061323982612970565b915061324582846127da565b915081905092915050565b600061325b82612b08565b915061326782846127da565b915081905092915050565b600061327d82612f9e565b915061328982856127da565b915061329482612a56565b91506132a082846127da565b91506132ab82612d86565b91508190509392505050565b60006132c282613044565b91506132ce82846127da565b915081905092915050565b60006132e482613084565b91506132f082846127da565b915081905092915050565b60006133068261312a565b915061331282846127da565b915081905092915050565b6000602082019050613332600083018461274a565b92915050565b600060808201905061334d600083018761274a565b61335a602083018661274a565b613367604083018561316a565b81810360608301526133798184612768565b905095945050505050565b6000604082019050613399600083018561274a565b6133a6602083018461316a565b9392505050565b60006020820190506133c26000830184612759565b92915050565b600060208201905081810360008301526133e281846127a1565b905092915050565b6000606082019050818103600083015261340481866127a1565b9050613413602083018561316a565b613420604083018461274a565b949350505050565b600060208201905081810360008301526134418161288a565b9050919050565b60006020820190508181036000830152613461816128ca565b9050919050565b6000602082019050818103600083015261348181612930565b9050919050565b600060208201905081810360008301526134a1816129b0565b9050919050565b600060208201905081810360008301526134c181612a16565b9050919050565b600060208201905081810360008301526134e181612b48565b9050919050565b6000602082019050818103600083015261350181612bee565b9050919050565b6000602082019050818103600083015261352181612c54565b9050919050565b6000602082019050818103600083015261354181612cba565b9050919050565b6000602082019050818103600083015261356181612d20565b9050919050565b6000602082019050818103600083015261358181612dc6565b9050919050565b600060208201905081810360008301526135a181612e06565b9050919050565b600060208201905081810360008301526135c181612e6c565b9050919050565b600060208201905081810360008301526135e181612ed2565b9050919050565b6000602082019050818103600083015261360181612f38565b9050919050565b6000602082019050818103600083015261362181612fde565b9050919050565b60006020820190508181036000830152613641816130c4565b9050919050565b600060208201905061365d600083018461316a565b92915050565b6000604051905081810181811067ffffffffffffffff8211171561368a57613689613a20565b5b8060405250919050565b600067ffffffffffffffff8211156136af576136ae613a20565b5b601f19601f8301169050602081019050919050565b60008190508160005260206000209050919050565b600081519050919050565b600081519050919050565b600082825260208201905092915050565b600082825260208201905092915050565b600081905092915050565b60006137278261389b565b91506137328361389b565b9250827fffffffffffffffffffffffffffffffffffffffffffffffffffffffffffffffff0382111561376757613766613993565b5b828201905092915050565b600061377d8261389b565b91506137888361389b565b925082613798576137976139c2565b5b828204905092915050565b60006137ae8261389b565b91506137b98361389b565b9250817fffffffffffffffffffffffffffffffffffffffffffffffffffffffffffffffff04831182151516156137f2576137f1613993565b5b828202905092915050565b60006138088261389b565b91506138138361389b565b92508282101561382657613825613993565b5b828203905092915050565b600061383c8261387b565b9050919050565b60008115159050919050565b60007fffffffff0000000000000000000000000000000000000000000000000000000082169050919050565b600073ffffffffffffffffffffffffffffffffffffffff82169050919050565b6000819050919050565b82818337600083830152505050565b60005b838110156138d25780820151818401526020810190506138b7565b838111156138e1576000848401525b50505050565b600060028204905060018216806138ff57607f821691505b60208210811415613913576139126139f1565b5b50919050565b60006139248261389b565b91507fffffffffffffffffffffffffffffffffffffffffffffffffffffffffffffffff82141561395757613956613993565b5b600182019050919050565b600061396d8261389b565b91506139788361389b565b925082613988576139876139c2565b5b828206905092915050565b7f4e487b7100000000000000000000000000000000000000000000000000000000600052601160045260246000fd5b7f4e487b7100000000000000000000000000000000000000000000000000000000600052601260045260246000fd5b7f4e487b7100000000000000000000000000000000000000000000000000000000600052602260045260246000fd5b7f4e487b7100000000000000000000000000000000000000000000000000000000600052604160045260246000fd5b6000601f19601f8301169050919050565b613a6981613831565b8114613a7457600080fd5b50565b613a8081613843565b8114613a8b57600080fd5b50565b613a978161384f565b8114613aa257600080fd5b50565b613aae8161389b565b8114613ab957600080fd5b5056fe416e204e465420772f20494420257320686173206265656e206d696e74656420746f2025734142434445464748494a4b4c4d4e4f505152535455565758595a6162636465666768696a6b6c6d6e6f707172737475767778797a303132333435363738392b2fa2646970667358221220137148c64de56a1a94b266f9f5886685b8d4367d24121921993cf1624e4ec4e264736f6c634300080000333c73766720786d6c6e733d27687474703a2f2f7777772e77332e6f72672f323030302f73766727207072657365727665417370656374526174696f3d27784d696e594d696e206d656574272076696577426f783d273020302033353020333530273e3c7374796c653e2e62617365207b2066696c6c3a2077686974653b20666f6e742d66616d696c793a2073657269663b20666f6e742d73697a653a20323470783b207d3c2f7374796c653e3c726563742077696474683d273130302527206865696768743d2731303025272066696c6c3d27272f3e3c7465787420783d273530252720793d273530252720636c6173733d27626173652720646f6d696e616e742d626173656c696e653d276d6964646c652720746578742d616e63686f723d276d6964646c65273e",
  "linkReferences": {},
  "deployedLinkReferences": {}
}